:020000040800F2
:10000000600600200D020008AF030008A7030008E7
:10001000AB030008090300085905000800000000B0
:10002000000000000000000000000000D5030008F0
:100030000D03000800000000B1030008ED040008F3
:1000400027020008270200082702000827020008EC
:1000500027020008270200082702000827020008DC
:1000600027020008270200082702000827020008CC
:1000700027020008270200082702000827020008BC
:1000800027020008270200082702000827020008AC
:10009000270200082702000827020008270200089C
:1000A000270200082702000827020008270200088C
:1000B000270200082702000827020008270200087C
:1000C000270200082702000827020008270200086C
:1000D000270200082702000827020008270200085C
:1000E000270200082702000827020008270200084C
:1000F000270200082702000827020008270200083C
:10010000270200082702000827020008270200082B
:10011000270200082702000827020008270200081B
:10012000270200082702000827020008270200080B
:1001300027020008270200082702000827020008FB
:1001400027020008270200082702000827020008EB
:1001500027020008270200082702000827020008DB
:1001600027020008270200082702000827020008CB
:1001700027020008270200082702000827020008BB
:10018000270200082702000800F002F800F02EF80D
:100190000AA090E8000C82448344AAF10107DA45E2
:1001A00001D100F023F8AFF2090EBAE80F0013F006
:1001B000010F18BFFB1A43F0010318472404000085
:1001C000340400000023002400250026103A28BF34
:1001D00078C1FBD8520728BF30C148BF0B607047B9
:1001E0001FB500F0F7F91FBD10B510BD00F031F8D4
:1001F0001146FFF7F5FF00F0D3F900F04FF803B414
:10020000FFF7F2FF03BC00F057F8000009488047F1
:1002100009480047FEE7FEE7FEE7FEE7FEE7FEE7E8
:10022000FEE7FEE7FEE7FEE704480549054A064B00
:1002300070470000F10400088901000860000020F8
:1002400060060020600200206002002070477047B6
:100250007047754600F02CF8AE46050069465346D7
:1002600020F00700854618B020B5FFF7DDFFBDE898
:1002700020404FF000064FF000074FF000084FF00D
:10028000000B21F00701AC46ACE8C009ACE8C0099E
:10029000ACE8C009ACE8C0098D46704710B504460B
:1002A000AFF300802046BDE81040FFF7A8BF000074
:1002B000004870470000002001491820ABBEFEE74F
:1002C00026000200704700001CB50121022000F04A
:1002D00071F84FF48070009001208DF80400002028
:1002E0008DF8060003208DF8050002208DF8070028
:1002F0006946044800F00BF84FF48071014800F0A3
:100300004EF81CBD0004024000BFFEE77047F0B588
:100310000A4600210023002400BF3DE0012505FA24
:1003200001F3156805EA03049C4234D105684F00C7
:100330000326BE40B543056015794E00B5400668FA
:10034000354305601579012D02D01579022D16D19E
:1003500085684F000326BE40B543856055794E0041
:10036000B540866835438560456801268E40B543B3
:100370004560456896798E40B6B235434560C5689C
:100380004F000326BE40B543C560D5794E00B54049
:10039000C6683543C560491C1029BFD3F0BD4183F1
:1003A00070470183704700BFFEE700BFFEE770475C
:1003B0007047000029B1064A12680243044B1A60D4
:1003C00004E0034A12688243014B1A607047000040
:1003D00030380240704700000CB5002001900090BA
:1003E0003448006840F480303249086000BF31482A
:1003F000006800F4003000900198401C01900098C3
:1004000018B90198B0F5A04FF1D12A48006800F45E
:10041000003010B10120009001E000200090009811
:10042000012846D123484030006840F080502149DF
:10043000403108602048006840F440401E49086090
:100440001C48083000681B490831086008460068ED
:1004500040F4004008600846006840F4A05008607E
:100460001648091F0860081F006840F08070091FC7
:10047000086000BF0F48006800F000700028F9D045
:1004800040F205700E4908600A480830006820F004
:1004900003000849083108600846006840F002007F
:1004A000086000BF03480830006800F00C0008280E
:1004B000F8D10CBD003802400070004019544007CC
:1004C000003C0240042808D14FF0E021096941F0C6
:1004D00004014FF0E022116107E04FF0E0210969CB
:1004E00021F004014FF0E0221161704770470000D5
:1004F00010B51548006840F47000134908601348AF
:10050000006840F001001149086000200F490831DF
:1005100008600E4800680E4908400C4908600D4804
:10052000091D0860081F006820F48020091F08606A
:10053000002006490C310860FFF74EFF4FF00060C5
:1005400001498039086010BD88ED00E000380240A4
:10055000FFFFF6FE1030002400BFFEE701461AE060
:1005600045F208224FF0E0235A6100229A611A46B0
:10057000126942F001021A6100BF1A46106900F0C8
:10058000010202B100BF00224FF0E0239A611A4637
:10059000126900221A610A1EA1F10101E0D170471F
:1005A0006FF00400FFF78EFFFFF78EFE0FE04FF4B1
:1005B00080710748FFF7F3FE0520FFF7CFFF4FF4E8
:1005C00080710348FFF7EDFE0520FFF7C7FFEEE758
:1005D000000402404FF04070E1EE100A7047000046
:1005E000F00500080000002060060000C4010008BB
:040000050800018965
:00000001FF
