:020000040800F2
:1000000078060020290200081D040008810300086A
:1000100019040008E3020008C505000800000000FC
:100020000000000000000000000000004104000883
:10003000E7020008000000001F040008590500083E
:10004000430200084302000843020008430200087C
:10005000430200084302000843020008430200086C
:10006000430200084302000843020008430200085C
:10007000430200084302000843020008430200084C
:10008000430200084302000843020008430200083C
:10009000430200084302000843020008430200082C
:1000A000430200084302000843020008430200081C
:1000B000430200084302000843020008430200080C
:1000C00043020008430200084302000843020008FC
:1000D00043020008430200084302000843020008EC
:1000E00043020008430200084302000843020008DC
:1000F00043020008430200084302000843020008CC
:1001000043020008430200084302000843020008BB
:1001100043020008430200084302000843020008AB
:10012000430200084302000843020008430200089B
:10013000430200084302000843020008430200088B
:10014000430200084302000843020008430200087B
:10015000430200084302000843020008430200086B
:10016000430200084302000843020008430200085B
:10017000430200084302000843020008430200084B
:10018000430200084302000800F002F800F03CF8C7
:100190000AA090E8000C82448344AAF10107DA45E2
:1001A00001D100F031F8AFF2090EBAE80F0013F0F8
:1001B000010F18BFFB1A43F0010318477004000039
:1001C00090040000103A24BF78C878C1FAD85207CA
:1001D00024BF30C830C144BF04680C6070470000C1
:1001E0000023002400250026103A28BF78C1FBD840
:1001F000520728BF30C148BF0B6070471FB500F0E1
:100200000FFA1FBD10B510BD00F031F81146FFF711
:10021000F5FF00F0FBF900F04FF803B4FFF7F2FF31
:1002200003BC00F057F80000094880470948004720
:10023000FEE7FEE7FEE7FEE7FEE7FEE7FEE7FEE796
:10024000FEE7FEE704480549054A064B70470000F3
:100250005D0500088901000878000020780600206C
:10026000780200207802002070477047704775467A
:1002700000F02CF8AE4605006946534620F0070012
:10028000854618B020B5FFF7DDFFBDE820404FF0F0
:1002900000064FF000074FF000084FF0000B21F070
:1002A0000701AC46ACE8C009ACE8C009ACE8C0093D
:1002B000ACE8C0098D46704710B50446AFF3008026
:1002C0002046BDE81040FFF7A8BF00000048704777
:1002D0001800002001491820ABBEFEE726000200EE
:1002E000704700BFFEE77047F0B50A4600210023C3
:1002F000002400BF3DE0012505FA01F3156805EA79
:1003000003049C4234D105684F000326BE40B54328
:10031000056015794E00B5400668354305601579CE
:10032000012D02D01579022D16D185684F000326C4
:10033000BE40B543856055794E00B540866835436B
:100340008560456801268E40B543456045689679CD
:100350008E40B6B235434560C5684F000326BE40A7
:10036000B543C560D5794E00B540C6683543C56014
:10037000491C1029BFD3F0BD01837047416170470C
:1003800000BFFEE71CB50121102000F049F84FF432
:100390007F40009001208DF8040000208DF80600B9
:1003A00003208DF8050001208DF8070069460448F8
:1003B000FFF79AFF4FF47F410148FFF7DDFF1CBDB7
:1003C0000010024010B510481049096830F81100BB
:1003D0000F490880084601880E48FFF7CFFF0B49F8
:1003E0000968C822514301F1C80000F0EDF8074840
:1003F0000068401C0549086008460068082801D1CB
:100400000020086010BD0000000000201400002043
:10041000100000200010024000BFFEE77047704748
:1004200029B1064A12680243044B1A6004E0034AE9
:1004300012688243014B1A60704700003038024056
:10044000704700000CB5002001900090344800680F
:1004500040F480303249086000BF3148006800F441
:10046000003000900198401C0190009818B9019844
:10047000B0F5A04FF1D12A48006800F4003010B167
:100480000120009001E0002000900098012846D152
:1004900023484030006840F08050214940310860D6
:1004A0002048006840F440401E4908601C4808305D
:1004B00000681B49083108600846006840F40040A5
:1004C00008600846006840F4A05008601648091FFC
:1004D0000860081F006840F08070091F086000BFB6
:1004E0000F48006800F000700028F9D040F2057055
:1004F0000E4908600A480830006820F003000849E7
:10050000083108600846006840F00200086000BF3B
:1005100003480830006800F00C000828F8D10CBD32
:10052000003802400070004019544007003C02406F
:10053000042808D14FF0E021096941F004014FF08F
:10054000E022116107E04FF0E021096921F0040188
:100550004FF0E022116170477047000010B5154858
:10056000006840F47000134908601348006840F0C8
:1005700001001149086000200F49083108600E4849
:1005800000680E4908400C4908600D48091D0860C4
:10059000081F006820F48020091F08600020064919
:1005A0000C310860FFF74EFF4FF0006001498039C1
:1005B000086010BD88ED00E000380240FFFFF6FE45
:1005C0001030002400BFFEE701461AE045F2082281
:1005D0004FF0E0235A6100229A611A46126942F0F4
:1005E00001021A6100BF1A46106900F0010202B14F
:1005F00000BF00224FF0E0239A611A4612690022E0
:100600001A610A1EA1F10101E0D170476FF00400E8
:10061000FFF78EFFFFF7B6FE01E0FFF7D3FEFCE722
:100620004FF04070E1EE100A704700004C060008E1
:100630000000002018000000C40100086406000843
:100640001800002060060000E0010008FE00FD0028
:10065000FB00F700EF00DF00BF007F00000000009C
:040660000000000096
:040000050800018965
:00000001FF
