:020000040800F2
:10000000A8060020290200083D1900083F19000831
:1000100043190008471900084B19000800000000A8
:100020000000000000000000000000004F19000860
:10003000511900080000000053190008410200088F
:10004000430200084302000843020008430200087C
:10005000430200084302000843020008430200086C
:10006000430200084302000843020008430200085C
:10007000430200084302000843020008430200084C
:10008000430200084302000843020008430200083C
:10009000430200084302000843020008430200082C
:1000A000430200084302000843020008430200081C
:1000B000430200084302000843020008430200080C
:1000C00043020008430200084302000843020008FC
:1000D00043020008430200084302000843020008EC
:1000E00043020008430200084302000843020008DC
:1000F00043020008430200084302000843020008CC
:1001000043020008430200084302000843020008BB
:1001100043020008430200084302000843020008AB
:10012000430200084302000843020008430200089B
:10013000430200084302000843020008430200088B
:10014000430200084302000843020008430200087B
:10015000430200084302000843020008430200086B
:10016000430200084302000843020008430200085B
:10017000430200084302000843020008430200084B
:10018000430200084302000800F002F800F03CF8C7
:100190000AA090E8000C82448344AAF10107DA45E2
:1001A00001D100F031F8AFF2090EBAE80F0013F0F8
:1001B000010F18BFFB1A43F0010318471C18000079
:1001C0003C180000103A24BF78C878C1FAD852070A
:1001D00024BF30C830C144BF04680C6070470000C1
:1001E0000023002400250026103A28BF78C1FBD840
:1001F000520728BF30C148BF0B6070471FB501F0E0
:10020000E6FB1FBD10B510BD01F0A7FB1146FFF7BF
:10021000F5FF01F05BFA01F0C5FB03B4FFF7F2FF55
:1002200003BC01F0CDFB00000948804709480047A6
:10023000FEE7FEE7FEE7FEE7FEE7FEE7FEE7FEE796
:10024000FEE7FEE704480549054A064B70470000F3
:100250000918000889010008A8000020A80600204D
:10026000A8020020A802002032490143324A11604E
:10027000704770B5002100230F22C4781CB32E4CA8
:10028000246804F4E064C4F5E064C4F30721C1F118
:100290000404E3B20A4144789C40E1B284781440FB
:1002A00021430C07210E254C05786155047804F094
:1002B0001F050124AC4005786D11AD0005F1E02566
:1002C000C5F8004109E0047804F01F050124AC40A2
:1002D0001B4D0678761145F8264070BD194A0A4034
:1002E0000243154B1B1F1A60704739B1124A121D89
:1002F00012680243104B1B1D1A6006E00E4A121DC5
:10030000126882430C4B1B1D1A607047042808D1E9
:100310004FF0E021096941F004014FF0E022116142
:1003200007E04FF0E021096921F004014FF0E022DD
:10033000116170470000FA050CED00E000E400E0F8
:1003400080E100E080FFFF1F10B50446984884421A
:1003500008D10121084600F086FB0021012000F0B1
:1003600082FB76E09348844208D10121022000F00C
:100370007AFB0021022000F076FB6AE08E4884427E
:1003800008D10121042000F06EFB0021042000F0C0
:100390006AFB5EE08948844208D10121082000F010
:1003A00062FB0021082000F05EFB52E0844884429A
:1003B00008D10121102000F056FB0021102000F090
:1003C00052FB46E07F48844208D10121202000F002
:1003D0004AFB0021202000F046FB3AE07A488442A4
:1003E00008D10121402000F03EFB0021402000F018
:1003F0003AFB2EE07548844208D10121802000F0AC
:1004000032FB0021802000F02EFB22E07048844265
:1004100008D10121801500F026FB0021A01500F075
:1004200022FB16E06B48844208D10121401500F000
:100430001AFB0021601500F016FB0AE066488442B2
:1004400007D10121001500F00EFB0021201500F05E
:100450000AFB10BDF0B50A4600210023002400BFAE
:100460003DE0012505FA01F3156805EA03049C4205
:1004700034D105684F000326BE40B54305601579A9
:100480004E00B5400668354305601579012D02D050
:100490001579022D16D185684F000326BE40B5435D
:1004A000856055794E00B54086683543856045685E
:1004B00001268E40B5434560456896798E40B6B2B8
:1004C00035434560C5684F000326BE40B543C5604F
:1004D000D5794E00B540C6683543C560491C102922
:1004E000BFD3F0BD4FF6FF71016000210171417172
:1004F0008171C171704708B54FF480320092009A43
:100500000A430092009AC261C161009AC261C26945
:100510000092C269009208BD0246002013690B4098
:100520000BB1012000E0002070470146086980B24D
:1005300070470246002053690B400BB1012000E0D8
:10054000002070470146486980B2704701837047B8
:10055000418370470AB1018300E0418370474161E4
:10056000704742694A4042617047F0B50023002459
:100570004D07ED0E02FA05F3CE1000F1200555F8F7
:1005800026504E07F70E0F26BE40B543CF1000F1A0
:10059000200646F82750CE1000F1200555F82650C9
:1005A00045EA0304CE1000F1200545F82640F0BDD1
:1005B000000002400004024000080240000C02401B
:1005C000001002400014024000180240001C0240CB
:1005D000002002400024024000280240F948006840
:1005E00040F00100F74908600020F6490831086032
:1005F000F4480068F4490840F2490860F348091DCE
:100600000860F348EF4984310860F0481038091D4C
:100610000860EC48006820F48020EA490860002067
:10062000E8490C310860E7498C31086070470021C7
:10063000E44A921C117011460870704710B50146CB
:100640000022002300204A11012A02D1DD4C236838
:1006500008E0022A03D1DB4C7034236802E0D94C55
:100660007434236801F01F02012494401C400CB133
:10067000012000E0002010BD38B5002000900024CB
:10068000002500BF3120FFF7D9FF05460098401C28
:1006900000900098B0F5A04F01D0002DF2D031208D
:1006A000FFF7CCFF08B1012400E00024204638BD4C
:1006B00001460020C34A106820F0F80040EAC1005B
:1006C00010607047C349086070470021BD4A70320E
:1006D00011701170012802D004280AD104E0012110
:1006E000B84A7032117005E00521B64A70321170B7
:1006F00000E000BF00BF7047B7490860704770B5A1
:10070000049C41EA82150126C6EB530645EA0645DC
:10071000054345EA0465AB4E361D356070BDAD49F5
:1007200008667047820142EA0172A64B84331A6060
:100730007047A8498866704710B5830143EA016392
:1007400043EA02739F4C8834236010BDA1490867B7
:100750007047A049C864704702460020994B08338F
:10076000186820F0EC6042EA01031843954B083307
:100770001860704702460020924B0833186820F03A
:10078000784042EA010318438E4B083318607047E3
:10079000014600208B4A0832106820F0030008430D
:1007A0001060704787480830006800F00C00704700
:1007B00001460020834A0832106820F0F000084308
:1007C00010607047014600207E4A0832106820F40D
:1007D000E05008431060704701460020794A083213
:1007E000106820F4604040EAC10010607047F0B526
:1007F000002100220024022500260223714F083721
:100800003F6807F00C0121B1042905D0082937D130
:1008100005E0724F076036E0714F076033E0694FC3
:100820003F1D3F68C7F38056664F3F1D3F6807F086
:100830003F036EB16A4FB7FBF3F7DFF888C10CF1E5
:10084000040CDCF800C0CCF3881C07FB0CF40CE0B3
:10085000624FB7FBF3F7DFF86CC10CF1040CDCF866
:1008600000C0CCF3881C07FB0CF4564F3F1D3F68BB
:10087000C7F301477F1C7D00B4FBF5F7076002E07A
:10088000564F076000BF00BF4E4F08373F6807F064
:10089000F0010909534F7A5C0768D7404760494F18
:1008A00008373F6807F4E051890A4E4F7A5C476881
:1008B000D7408760434F08373F6807F46041490BD2
:1008C000484F7A5C4768D740C760F0BD002100F40C
:1008D0004072B2F5407F0AD13A4A0832116821F4D9
:1008E000F811414A02401143364A08321160354A34
:1008F00070321268C0F30B031A43324B70331A6024
:1009000070473549443908607047334940390860B9
:10091000704736490860704701460020294A8C32EA
:10092000106820F01F004A1E1043264A8C321060C7
:10093000704701460020234A8C32106820F4F8509A
:100940004A1E40EA02201F4A8C321060704701465E
:1009500000201C4A8C32106820F4401008431060BC
:10096000704701460020174A8C32106820F440007E
:1009700008431060704701460020124A8C3210680C
:1009800020F44030084310607047194908607047F0
:1009900039B10C4A3032126802430A4B30331A60C4
:1009A00006E0084A303212688243064B30331A6040
:1009B0007047F9B1034A343212680243014B3433B1
:1009C0001A601CE000380240FFFFF6EA10300024F5
:1009D0000030002000004742800E47420024F4000F
:1009E00000127A0000000020FFFCFF0F5C0147426C
:1009F000E01147428F4A126882438E4B1A6070475B
:100A000039B18C4A121D126802438A4B1B1D1A60B1
:100A100006E0884A121D12688243864B1B1D1A602D
:100A2000704739B1834A0C3212680243814B0C3350
:100A30001A6006E07F4A0C32126882437D4B0C3309
:100A40001A60704739B17B4A103212680243794B01
:100A500010331A6006E0774A103212688243754BF1
:100A600010331A60704739B1724A243A126802434F
:100A7000704B243B1A6006E06E4A243A12688243A7
:100A80006C4B243B1A60704739B16A4A203A1268AD
:100A90000243684B203B1A6006E0664A203A12681F
:100AA0008243644B203B1A60704739B1614A1C3A5B
:100AB000126802435F4B1C3B1A6006E05D4A1C3A19
:100AC000126882435B4B1C3B1A60704739B1594A2C
:100AD000143A12680243574B143B1A6006E0554A19
:100AE000143A12688243534B143B1A60704739B171
:100AF000504A103A126802434E4B103B1A6006E00F
:100B00004C4A103A126882434A4B103B1A607047B5
:100B100039B1484A1C3212680243464B1C331A60F2
:100B200006E0444A1C3212688243424B1C331A606E
:100B3000704739B13F4A2032126802433D4B20339F
:100B40001A6006E03B4A203212688243394B203358
:100B50001A60704739B1374A243212680243354B64
:100B600024331A6006E0334A243212688243314B40
:100B700024331A60704739B12E4A2C32126802436E
:100B80002C4B2C331A6006E02A4A2C32126882431E
:100B9000284B2C331A60704739B1264A303212681C
:100BA0000243244B30331A6006E0224A3032126886
:100BB0008243204B30331A607047012808D11D4909
:100BC0003C31096841F008011A4A3C32116007E0E3
:100BD00018493C31096821F00801164A3C3211607D
:100BE000704739B1134A273A12780243114B273B19
:100BF0001A7006E00F4A273A127882430D4B273BC2
:100C00001A7070470B484030006840F08070094906
:100C100040310860704701460020064A283A1268B1
:100C20000A400AB1012000E000207047014926393E
:100C3000087070473438024010B504466FF0040065
:100C4000FFF764FBE11704EB5171C1F3C701394AA7
:100C500011701046007800EB4001C1EBC0104FF658
:100C6000FF7101EAC0003449088010BD0146314AD5
:100C700012784A434FF0E0235A6100229A611A46E3
:100C8000126942F001021A6100BF4FF0E0221069C0
:100C900000F001021AB100F48032002AF5D04FF0C2
:100CA000E022126922F001024FF0E0231A610022D3
:100CB0009A6170470146204A12884A434FF0E02368
:100CC0005A6100229A611A46126942F001021A61C1
:100CD00000BF4FF0E022106900F001021AB100F4E9
:100CE0008032002AF5D04FF0E022126922F0010292
:100CF0004FF0E0231A6100229A61704770B50446F4
:100D00004FF4077094FBF0F0C6B24FF4077094FBF9
:100D1000F0F100FB114085B205E04FF40770FFF7DA
:100D2000C9FF701EC6B2002EF7D115B12846FFF7D5
:100D3000C1FF70BD10000020120000201CB5012171
:100D40000846FFF725FE0F20009001208DF80400D3
:100D50008DF8070003208DF805006946FE48FFF76F
:100D600079FB01210846FFF713FEF02000900020D8
:100D70008DF8040001208DF8070003208DF8050090
:100D80006946F548FFF766FB1CBD10B50020F34926
:100D900008600120F249C1F88402F0490831086076
:100DA000091D0860091D0860091D0860091D08600B
:100DB000EB49C1F89C020121E748FFF7ADFB04466F
:100DC0000221E548FFF7A8FB44EA40040421E24879
:100DD000FFF7A2FB44EA80040821DF48FFF79CFBF1
:100DE00044EAC0041021DC48FFF796FB44EA0014F3
:100DF0002021D948FFF790FB44EA40144021D6480F
:100E0000FFF78AFB44EA80148021D348FFF784FB74
:100E100044EAC010D34908700846007800F0F0009A
:100E2000087008460078F0287ED00A20FFF766FF99
:100E3000CC480078F028F7D00121C748FFF76CFBB9
:100E400004460221C448FFF767FB44EA400404213A
:100E5000C148FFF761FB44EA80040821BE48FFF760
:100E60005BFB44EAC0041021BB48FFF755FB44EA92
:100E700000142021B848FFF74FFB44EA40144021FA
:100E8000B548FFF749FB44EA80148021B248FFF7D8
:100E900043FB44EAC010B3490870084600787E2836
:100EA00011D0BE280BD0DE2805D0EE280FD10020AF
:100EB000AD4908700BE00120AB49087007E0022043
:100EC000A949087003E00320A749087000BF00BFCC
:100ED00037E00121A048FFF71FFB044602219E488E
:100EE000FFF71AFB44EA400404219B48FFF714FB78
:100EF00044EA800408219848FFF70EFB44EAC00446
:100F000010219548FFF708FB44EA0014202192487D
:100F1000FFF702FB44EA401440218F48FFF7FCFA38
:100F200044EA8014802100E00FE08B48FFF7F4FAD8
:100F300044EAC0108B4908700846007800F0F000C1
:100F4000087088480078F028C3D1012083490860E0
:100F500000208349C1F884020120804908310860DB
:100F6000091D0860091D0860091D0860091D086049
:100F70007B49C1F89C0201217748FFF7CDFA04466E
:100F800002217548FFF7C8FA44EA40040421724878
:100F9000FFF7C2FA44EA800408216F48FFF7BCFA61
:100FA00044EAC00410216C48FFF7B6FA44EA001482
:100FB00020216948FFF7B0FA44EA4014402166480E
:100FC000FFF7AAFA44EA801480216348FFF7A4FAE5
:100FD00044EAC010634908700846007800F0F00049
:100FE000087008460078F0287ED00A20FFF786FEB9
:100FF0005C480078F02877D001215748FFF78CFA39
:10100000044602215448FFF787FA44EA40040421C9
:101010005148FFF781FA44EA800408214E48FFF75F
:101020007BFA44EAC00410214B48FFF775FA44EA02
:10103000001420214848FFF76FFA44EA4014402189
:101040004548FFF769FA44EA801480214248FFF7D7
:1010500063FA44EAC01043490870084600787D28C6
:1010600011D0BD280BD0DD2805D0ED280FD10420EC
:101070003D4908700BE005203B49087007E0062059
:101080003949087003E007203749087000BF00BFE6
:1010900037E001213048FFF73FFA044602212E488D
:1010A000FFF73AFA44EA400404212B48FFF734FAE8
:1010B00044EA800408212848FFF72EFA44EAC004D5
:1010C00010212548FFF728FA44EA0014202122487D
:1010D000FFF722FA44EA401440211F48FFF71CFAA8
:1010E00044EA8014802100E00FE01B48FFF714FA67
:1010F00044EAC0101B4908700846007800F0F00070
:10110000087018480078F028C3D1012013490860FE
:101110001349C1F8840200201049083108600120F9
:10112000091D0860091D0860091D0860091D086087
:101130000B49C1F89C0201210748FFF7EDF904466D
:1011400002210548FFF7E8F944EA40040421024877
:10115000FFF7E2F90AE0000000000240800240428E
:1011600000004042140000201500002044EA8004E2
:101170000821CD48FFF7D0F944EAC0041021CA483D
:10118000FFF7CAF944EA00142021C748FFF7C4F961
:1011900044EA40144021C448FFF7BEF944EA8014F1
:1011A0008021C148FFF7B8F944EAC010BF49087070
:1011B0000846007800F0F000087008460078F02833
:1011C0007ED00A20FFF79AFDB8480078F02877D043
:1011D0000121B548FFF7A0F904460221B248FFF704
:1011E0009BF944EA40040421AF48FFF795F944EA2B
:1011F00080040821AC48FFF78FF944EAC0041021AD
:10120000A948FFF789F944EA00142021A648FFF70E
:1012100083F944EA40144021A348FFF77DF944EAEA
:1012200080148021A048FFF777F944EAC0109F4955
:101230000870084600787B2811D0BB280BD0DB282B
:1012400005D0EB280FD10820994908700BE0092040
:101250009749087007E00A209549087003E00B20C1
:101260009349087000BF00BF37E001218E48FFF7A7
:1012700053F9044602218C48FFF74EF944EA400432
:1012800004218948FFF748F944EA80040821864888
:10129000FFF742F944EAC00410218348FFF73CF904
:1012A00044EA001420218048FFF736F944EA40144C
:1012B00040217D48FFF730F944EA8014802100E0A6
:1012C0000FE07948FFF728F944EAC0107749087021
:1012D0000846007800F0F000087074480078F028A4
:1012E000C3D10120734908607349C1F88402714970
:1012F000083108600020091D08600120091D0860F0
:10130000091D0860091D08606B49C1F89C02012194
:101310006548FFF701F9044602216348FFF7FCF82E
:1013200044EA400404216048FFF7F6F844EA8004E8
:1013300008215D48FFF7F0F844EAC00410215A483C
:10134000FFF7EAF844EA001420215748FFF7E4F8D1
:1013500044EA401440215448FFF7DEF844EA801480
:1013600080215148FFF7D8F844EAC0104F4908706F
:101370000846007800F0F000087008460078F02871
:101380007ED00A20FFF7BAFC48480078F02877D0D2
:1013900001214548FFF7C0F8044602214248FFF703
:1013A000BBF844EA400404213F48FFF7B5F844EA9B
:1013B000800408213C48FFF7AFF844EAC00410213C
:1013C0003948FFF7A9F844EA001420213648FFF70E
:1013D000A3F844EA401440213348FFF79DF844EA5B
:1013E000801480213048FFF797F844EAC0102F4955
:1013F000087008460078772811D0B7280BD0D72876
:1014000005D0E7280FD10C20294908700BE00D20EA
:101410002749087007E00E202549087003E00F20D7
:101420002349087000BF00BF37E001211E48FFF7C5
:1014300073F8044602211C48FFF76EF844EA4004A2
:1014400004211948FFF768F844EA80040821164887
:10145000FFF762F844EAC00410211348FFF75CF874
:1014600044EA001420211048FFF756F844EA4014DB
:1014700040210D48FFF750F844EA8014802100E035
:101480000FE00948FFF748F844EAC0100749087020
:101490000846007800F0F000087004480078F02852
:1014A000C3D10348007810BD0000024014000020A2
:1014B0001500002080024042000040421CB501217E
:1014C0001020FFF765FA4FF47F40009001208DF85F
:1014D000040000208DF8060003208DF8050001208F
:1014E0008DF8070069460B48FEF7B4FF4FF47F41C3
:1014F0000848FFF72BF81CBD10B54FF47F41054895
:10150000FFF726F810BD10B54FF47F410148FFF7F3
:101510001DF810BD001002401CB501211020FFF77E
:1015200037FA4FF60F70009001208DF804008DF807
:10153000070000208DF8060003208DF8050069469D
:101540002A48FEF787FF0F212848FEF7FFFF1CBD42
:1015500070B505460C46012C03D12448FEF7F8FF70
:1015600005E0022C03D102212048FEF7F1FF2048BC
:10157000405D204908700846007800F001001E49CF
:1015800008601C480078C0F340001C49C1F8A40260
:1015900018480078C0F38000C1F8A8021548007808
:1015A000C0F3C000C1F8AC0212480078C0F30010CC
:1015B000C1F8B0020F480078C0F34010C1F8B4027F
:1015C0000C480078C0F38010C1F8B80209480078D0
:1015D000C009C1F8BC020F210448FEF7B7FF4FF461
:1015E0007F410248FEF7B2FF70BD000000100240CC
:1015F0001800002028000020A002424200004242C1
:101600001CB501210420FFF7C3F94FF4805000906E
:1016100000208DF8040001208DF8070003208DF8CC
:10162000050069462648FEF715FF01210846FFF729
:10163000AFF90120009000208DF8040002208DF801
:10164000070003208DF8050069461E48FEF702FFDB
:101650001CBD10B54FF480511948FEF75DFF28B14D
:1016600001211848FEF758FF012818D116480078C4
:10167000A8B10A20FFF742FB0020134908704FF47D
:1016800080510F48FEF748FF08B9012010BD012125
:101690000C48FEF741FF012810D10220F6E74FF475
:1016A00080510748FEF738FF012807D1012105487E
:1016B000FEF732FF10B90120034908700020E5E76A
:1016C000000802400000024030000020FFF736FB17
:1016D000A820FFF7B1FAFFF7F1FEFFF71DFF20E0AA
:1016E000FFF753FB0F490870FFF7B3FF0E4908706F
:1016F0000C480078A8B10B4800780A2190FBF1F063
:10170000C4B201212046FFF723FF064800780A21D2
:1017100090FBF1F201FB1200C4B202212046FFF758
:1017200017FFDDE731000020320000200CB500205B
:10173000019000907648006840F480307449086059
:1017400000BF7348006800F4003000900198401C0E
:101750000190009818B90198B0F5A04FF1D16C48EC
:10176000006800F4003010B10120009001E000207A
:1017700000900098012846D165484030006840F04C
:1017800080506349403108606248006840F440403E
:10179000604908605E48083000685D4908310860AB
:1017A0000846006840F4004008600846006840F4BD
:1017B000A05008605848091F0860081F006840F0E2
:1017C0008070091F086000BF5148006800F0007079
:1017D0000028F9D040F20570504908604C480830A4
:1017E000006820F003004A49083108600846006894
:1017F00040F00200086000BF45480830006800F073
:101800000C000828F8D10CBD10B54548006840F41C
:101810007000434908603E48006840F001003C49C0
:10182000086000203A4908310860394800683D499D
:101830000840374908603C48091D0860081F0068D7
:1018400020F48020091F0860002031490C31086015
:10185000FFF76CFF4FF0006031498039086010BD20
:1018600070B500200022022300240221284D0835F3
:101870002D6805F00C0020B1042806D0082834D1CA
:1018800007E02A4D2A4E356033E02A4D284E356058
:101890002FE01F4D2D1D2D68C5F380541C4D2D1DAF
:1018A0002D6805F03F0154B1224DB5FBF1F5184EFE
:1018B000361D3668C6F3881605FB06F209E01B4D97
:1018C000B5FBF1F5124E361D3668C6F3881605FBDA
:1018D00006F20F4D2D1D2D68C5F301456D1C6B00E3
:1018E000B2FBF3F5124E356003E0104D104E35603B
:1018F00000BF00BF064D08352D68C5F303150E4E19
:10190000705D0B4D2D68C540094E356070BD0000FF
:10191000003802400070004008544007003C02407C
:1019200088ED00E0FFFFF6FE103000240024F400F4
:101930003400002000127A0038000020704700BFF9
:10194000FEE700BFFEE700BFFEE700BFFEE770470F
:1019500070477047704770477047754600F02CF825
:10196000AE4605006946534620F00700854618B08C
:1019700020B5FEF767FCBDE820404FF000064FF0B1
:1019800000074FF000084FF0000B21F00701AC46B4
:10199000ACE8C009ACE8C009ACE8C009ACE8C009D3
:1019A0008D46704710B50446AFF300802046BDE871
:1019B0001040FEF732BC000000487047480000208D
:1019C00001491820ABBEFEE72600020070474FF029
:1019D0004070E1EE100A7047F8190008000000207E
:1019E00048000000C4010008401A00084800002018
:1019F00060060000E001000800000000010203048E
:101A000001020304060708090000000000000000AE
:101A1000C0F9A4B0999282F880908883C6A1868E7E
:101A2000000000000000000001000000007A030A2E
:101A3000000000000000000001020304060708097E
:040000050800018965
:00000001FF
