:020000040800F2
:100000007806002029020008F9020008F102000821
:10001000F5020008E3020008A50400080000000043
:1000200000000000000000000000000021030008A4
:10003000E702000800000000FB0200083904000885
:10004000430200084302000843020008430200087C
:10005000430200084302000843020008430200086C
:10006000430200084302000843020008430200085C
:10007000430200084302000843020008430200084C
:10008000430200084302000843020008430200083C
:10009000430200084302000843020008430200082C
:1000A000430200084302000843020008430200081C
:1000B000430200084302000843020008430200080C
:1000C00043020008430200084302000843020008FC
:1000D00043020008430200084302000843020008EC
:1000E00043020008430200084302000843020008DC
:1000F00043020008430200084302000843020008CC
:1001000043020008430200084302000843020008BB
:1001100043020008430200084302000843020008AB
:10012000430200084302000843020008430200089B
:10013000430200084302000843020008430200088B
:10014000430200084302000843020008430200087B
:10015000430200084302000843020008430200086B
:10016000430200084302000843020008430200085B
:10017000430200084302000843020008430200084B
:10018000430200084302000800F002F800F03CF8C7
:100190000AA090E8000C82448344AAF10107DA45E2
:1001A00001D100F031F8AFF2090EBAE80F0013F0F8
:1001B000010F18BFFB1A43F001031847900300001A
:1001C000B0030000103A24BF78C878C1FAD85207AB
:1001D00024BF30C830C144BF04680C6070470000C1
:1001E0000023002400250026103A28BF78C1FBD840
:1001F000520728BF30C148BF0B6070471FB500F0E1
:100200009FF91FBD10B510BD00F031F81146FFF782
:10021000F5FF00F06BF900F04FF803B4FFF7F2FFC1
:1002200003BC00F057F80000094880470948004720
:10023000FEE7FEE7FEE7FEE7FEE7FEE7FEE7FEE796
:10024000FEE7FEE704480549054A064B70470000F3
:100250003D0400088901000878000020780600208D
:10026000780200207802002070477047704775467A
:1002700000F02CF8AE4605006946534620F0070012
:10028000854618B020B5FFF7DDFFBDE820404FF0F0
:1002900000064FF000074FF000084FF0000B21F070
:1002A0000701AC46ACE8C009ACE8C009ACE8C0093D
:1002B000ACE8C0098D46704710B50446AFF3008026
:1002C0002046BDE81040FFF7A8BF00000048704777
:1002D0001400002001491820ABBEFEE726000200F2
:1002E000704700BFFEE77047018370474161704768
:1002F00000BFFEE700BFFEE77047704770B50446D9
:100300000D46054830F815000122A240104381B285
:100310000248FFF7EBFF70BD000000200010024014
:10032000704700000CB50020019000903448006830
:1003300040F480303249086000BF3148006800F462
:10034000003000900198401C0190009818B9019865
:10035000B0F5A04FF1D12A48006800F4003010B188
:100360000120009001E0002000900098012846D173
:1003700023484030006840F08050214940310860F7
:100380002048006840F440401E4908601C4808307E
:1003900000681B49083108600846006840F40040C6
:1003A00008600846006840F4A05008601648091F1D
:1003B0000860081F006840F08070091F086000BFD7
:1003C0000F48006800F000700028F9D040F2057076
:1003D0000E4908600A480830006820F00300084908
:1003E000083108600846006840F00200086000BF5D
:1003F00003480830006800F00C000828F8D10CBD54
:10040000003802400070004019544007003C024090
:10041000042808D14FF0E021096941F004014FF0B0
:10042000E022116107E04FF0E021096921F00401A9
:100430004FF0E022116170477047000010B5154879
:10044000006840F47000134908601348006840F0E9
:1004500001001149086000200F49083108600E486A
:1004600000680E4908400C4908600D48091D0860E5
:10047000081F006820F48020091F0860002006493A
:100480000C310860FFF74EFF4FF0006001498039E2
:10049000086010BD88ED00E000380240FFFFF6FE66
:1004A0001030002400BFFEE701461AE045F20822A2
:1004B0004FF0E0235A6100229A611A46126942F015
:1004C00001021A6100BF1A46106900F0010202B170
:1004D00000BF00224FF0E0239A611A461269002201
:1004E0001A610A1EA1F10101E0D170476FF004000A
:1004F000FFF78EFF21E000241DE0A1B20120FFF7ED
:10050000FDFEA1B20220FFF7F9FEA1B20320FFF722
:10051000F5FEA1B20420FFF7F1FE4FF4FA70FFF7E9
:10052000C3FF0F210548FFF7DFFE4FF47F4103486B
:10053000FFF7DAFE641C092CDFDBDCE70010024069
:100540004FF04070E1EE100A704700006C050008A3
:100550000000002014000000C4010008800500080D
:100560001400002064060000E0010008FFC0FFF94D
:10057000FFA4FFB0FF99FF92FF82FFF8FF80FF907A
:040000050800018965
:00000001FF
